:020000021000EC
:1090000000600020759301005D9301005F930100F3
:10901000619301006393010065930100000000006B
:109020000000000000000000000000006793010045
:1090300069930100000000006B9301006D93010033
:1090400095BD01006F9301005DC301006F930100A6
:109050006F930100000000007DC1010081C4010088
:10906000A5CA0100BDCA01006F9301006F93010002
:109070006F930100BDB601006F9301006F93010073
:109080006F93010015A101006F9301006F93010020
:10909000C9A101006F9301008D2502006F930100AB
:1090A0006F9301006F9301000000000000000000BA
:1090B0006F9301006F9301000000000000000000AA
:1090C00000000000000000000000000000000000A0
:1090D0000000000000000000000000000000000090
:1090E0000000000000000000000000000000000080
:1090F0000000000000000000000000000000000070
:10910000000000000000000000000000000000005F
:10911000000000000000000000000000000000004F
:10912000000000000000000000000000000000003F
:10913000000000000000000000000000000000002F
:10914000000000000000000000000000000000001F
:10915000000000000000000000000000000000000F
:1091600000000000000000000000000000000000FF
:1091700000000000000000000000000000000000EF
:1091800000000000000000000000000000000000DF
:1091900000000000000000000000000000000000CF
:1091A00000000000000000000000000000000000BF
:1091B00000000000000000000000000000000000AF
:1091C000000000000000000000000000000000009F
:1091D000000000000000000000000000000000008F
:1091E000000000000000000000000000000000007F
:1091F000000000000000000000000000000000006F
:10920000354936480A1A02D0072291438D4634491F
:1092100034480A1A06D00722914381F309880222B2
:1092200082F3148830483149314A00F044F831481B
:109230003149324A00F03FF831483249324A00F0B1
:109240003AF832483249334A00F035F83248334967
:10925000334A00F030F833483349344A00F02BF8F1
:1092600033483449344A00F026F83448344900225F
:1092700000F02CF833483449002200F027F8334836
:109280003349091A082902DB002202604160314A91
:1092900090471F481F49884205D00268043003B434
:1092A000904703BCF7E700208646EC4600200021EB
:1092B000294A9047FEE7884207D0521A05D0037822
:1092C00001300B700131013AF9D17047884202D068
:1092D00002700130FAE7704700600020005800205B
:1092E000006000200060002090A3020014250020F0
:1092F000AC250020C0930100C093010060870200EC
:1093000090A30200142500201425002014890200D7
:1093100014890200148902001489020014890200D1
:1093200014890200148902001489020090A302002B
:1093300028A40200AC250020AC250020AC2500208C
:10934000B04B0020B04B0020B44B0020B44B0020A9
:10935000B45300208B930100B5560200FEE7FEE7F0
:10936000FEE7FEE7FEE7FEE7FEE7FEE7FEE7FEE7D5
:10937000704700BF0C4880470C484FF007018843F6
:1093800085460B488047FFF73BBF0A480A490B4A0E
:10939000884207D0521A05D0037801300B70013192
:1093A000013AF9D17047000071930100006000207C
:1093B0009DB801000089020000250020142500202E
:1093C00000487047A84B00207047704700B583B035
:1093D000044B00934023044A00F036F803B05DF8D4
:1093E00004FB00BFED930100B02500201AB32DE966
:1093F000F84388461446032700250F4E0F4B43F0D1
:10940000010902E0012333709CB1224608EB0501FB
:10941000002003F077FC0544241A0028F2D13378A9
:109420003BB14FF47A40C847013FEBD1024B0022D9
:109430001A70BDE8F8837047AC250020148902003B
:1094400008B503F095FC08BDF0B595B00E4615467D
:109450001C46084601F0DBFD0E950F940024109485
:109460008DF8444012941A9B13932346082208A9AE
:10947000304601F0EBFD0A9B0B93BDF82430ADF8AC
:109480003030BDF82630ADF832308DF835409DF8DB
:10949000203003F00303012B06D0022B21D03046ED
:1094A00001F0BBFD15B0F0BD089DC5F395259DF8F5
:1094B0002030C3F3C2038DF83430BDF82040C4F32C
:1094C00083140823A2000DEB0301304601F0BEFD1A
:1094D0000EAB00930BAB224602A9284600F0AEFC6F
:1094E000DDE7BDF82250C5F389159DF82030C3F3A0
:1094F000C2038DF8343008272C46082D28BF0824D5
:109500003B46224602A9304601F0A0FD27442D1B10
:109510000EAB0BAA214602A800F0F4FC002DEBD103
:10952000BDE7000008B5FFF78BFF0421034800F0FA
:10953000DDFB034B01225A7108BD00BFF088020019
:109540001425002010B50C4BFF229A6000221A60EF
:109550005A60C3F81824C3F81424012283F8202485
:10956000064801F001FD044608B1204610BD04483C
:1095700001F09BFDF9E700BFF426002004880200FB
:1095800050890200A1B10C4B0C4A9B1A4FEAD30C34
:10959000072B0AD900230A4931F82320824206D03A
:1095A00001336345F8D30020704700207047184608
:1095B000024B53F830007047F08802001888020010
:1095C00014250020094B03EBC0030139032909D8F6
:1095D000DFE801F00A02040604207047187970479A
:1095E00058797047002070470220704718880200A1
:1095F000034B58681B68984214BF00200120704735
:10960000F42600202DE9F04784B0FFF7F1FF002891
:1096100040F00A818949C1F81804BFF34F8F4A68A6
:109620008C6802EA0403033301EB83030E680D46E2
:109630000EE01B88C3F3831302321A44D5F81834A2
:10964000ABB9964245D904EA0203033305EB830321
:10965000197811F0040F0AD001F003010129E8D0B4
:109660000229EBD102325B8802EB9312E6E77349E1
:1096700002EA040301EB8303DB680193501C2040E2
:1096800001EB8001C9680291951C03F00303022BD2
:1096900022D0012B7ED0694BD3F810443CB1236813
:1096A0009B6820469847E3681C68002CF7D1644803
:1096B000644BC01AC0080004634940F0020000F087
:1096C000C9F8FFF795FF80F00100C0B204B0BDE813
:1096D000F0875A4B5E60F9E7BDF80630C3F389188E
:1096E0004646642E28BF642666F38F13ADF8063015
:1096F00006F10801C1F30901544801F055FC074681
:109700000028C8D001F083FC0023082201A93846B4
:1097100001F091FC24EA050301339A00B6EB830FB4
:109720002CD9002A00F082805FFA82F9A6EB0906A4
:10973000F6B2DFF808A105EA0401033108234A461E
:109740000AEB8101384601F076FC09F1080303F0C9
:10975000FC0332460AF10C01384601F06CFC08F1BA
:10976000030805EB9805354BD3F81044002C51D174
:10977000384601F052FC314B5D60A2E705EA040176
:109780000331082332462D4800EB8101384601F0B1
:1097900052FCE4E7BDF80420C2F38313062B28BF74
:1097A000062363F38912ADF80420023303F00F019E
:1097B0008900264801F0F8FB074600283FF46BAF0C
:1097C00001F025FC0023082201A9384601F033FCF2
:1097D000BDF8043013F4707FC5D00026DFF85C902C
:1097E0004FF004082946B300214001350331083306
:1097F000424609EB8101384601F01DFC0136BDF8F7
:109800000430C3F38313B342ECD8ACE7E3681C68BD
:10981000002CADD0E3685B79002BF7D023681B6880
:10982000394620469847F1E700204FE70823F2B277
:109830000749384601F0FFFB91E700BFF4260020FE
:109840005888020018880200388902000488020043
:10985000002700202DE9F04182B006460F46314D29
:10986000AC6800238DF807300DF1070000F0F8FE1A
:10987000D5F80080AA686B6813440133A3EB080392
:10988000012B44D9274D08EA02020332052345F88B
:10989000223008F102032B609DF8070000F00CFF56
:1098A000002105F21C4001F039F880F3100308F1A3
:1098B0000102224005EB82021B0443EA1643D360F7
:1098C00004EA0803033315F8232066F3C50205F8FC
:1098D000232035F823206FF3891225F8232055F82B
:1098E000232067F39F2245F82320012161F3010221
:1098F0006FF3820205F823200A4B93F820341BB142
:10990000FFF780FE0028FBD102B0BDE8F081012105
:1099100005F21C4001F038F89DF8070000F0CCFE7D
:10992000EAE700BFF42600202DE9F04383B00646A5
:109930000F469146344DAC6800238DF807300DF189
:10994000070000F08DFED5F80080AA686B6813440C
:109950000133A3EB0803022B4BD92B4D08EA02027B
:109960000332452345F8223008F103032B609DF8AC
:10997000070000F0A1FE08F10203234005EB83037A
:10998000C3F80C90002105F21C4000F0C7FF80F3E3
:10999000100308F10102224005EB82021B0443EA96
:1099A0001643D36004EA0803033315F8232066F353
:1099B000C50205F8232035F82320012161F389121F
:1099C00025F8232055F8232067F39F2245F823200C
:1099D00061F301026FF3820205F823200A4B93F82A
:1099E00020341BB1FFF70EFE0028FBD103B0BDE809
:1099F000F083012105F21C4000F0C6FF9DF807002E
:109A000000F05AFEEAE700BFF42600202DE9F047F7
:109A100084B0074688469246994602920393344D95
:109A2000AC6800238DF807300DF1070000F018FE38
:109A30002E68AB686D681D440135AD1B032D4ED9F2
:109A40002B4D33400333852245F82320331D2B60F3
:109A50009DF8070000F030FEB31C234005EB8303A4
:109A6000C3F80CA0F31C234005EB8303C3F80C9050
:109A7000002105F21C4000F051FF80F31003721C1E
:109A8000224005EB82021B0443EA1743D36004EA39
:109A90000603033315F8232067F3C50205F82320D6
:109AA00035F82320022161F3891225F8232055F887
:109AB000232068F39F2245F82320012161F301024E
:109AC0006FF3820205F82320094B93F820341BB171
:109AD000FFF798FD0028FBD104B0BDE8F087012115
:109AE000044800F051FF9DF8070000F0E5FDEBE7AA
:109AF000F4260020102B00202DE9F04F85B0804681
:109B0000894692461F46DDF838B001920293CDF89F
:109B10000CB0374DAC6800238DF803300DF1030015
:109B200000F09EFD2E68AA686B68134401339B1BEE
:109B3000042B53D92E4D32400332C52345F8223031
:109B4000731D2B609DF8030000F0B6FDB31C23408D
:109B500005EB8303C3F80CA0F31C234005EB830340
:109B6000DF60331D234005EB8303C3F80CB00021F5
:109B700005F21C4000F0D2FE80F31003721C22405C
:109B800005EB82021B0443EA1843D36004EA060390
:109B9000033315F8232068F3C50205F8232035F8B0
:109BA0002320032161F3891225F8232055F823206F
:109BB00069F39F2245F82320012161F301026FF32D
:109BC000820205F823200A4B93F820341BB1FFF7DB
:109BD00019FD0028FBD105B0BDE8F08F012105F289
:109BE0001C4000F0D1FE9DF8030000F065FDEAE79F
:109BF000F42600202DE9F04186B007468846019200
:109C000002930C9B03930D9B04930E9B0593364D7F
:109C1000AC6800238DF803300DF1030000F020FD47
:109C20002E68AA686B68134401339B1B062B51D91D
:109C30002D4B3240033240F2451143F82210F51DFE
:109C40001D609DF8030000F037FDB21C01A9DFF88C
:109C500098C01346013251F8040B23400CEB8303E8
:109C6000D860AA42F5D1204D002105F21C4000F039
:109C700055FE80F31003721C224005EB82021B0488
:109C800043EA1743D3603440033415F8243067F3B4
:109C9000C50305F8243035F82430052262F3891312
:109CA00025F8243055F8243068F39F2345F82430F4
:109CB000012262F301036FF3820305F824300A4B9B
:109CC00093F820341BB1FFF79DFC0028FBD106B0B0
:109CD000BDE8F081012105F21C4000F055FE9DF821
:109CE000030000F0E9FCEAE7F426002010B4044683
:109CF000174BD3F81014002009E0154BC3F810449B
:109D0000E36800221A6021E001300A281CD039B132
:109D10000B46DB681A798242F6D01B68002BF8D11B
:109D2000B0F1FF3F12D0E3681871094BD3F810343B
:109D3000002BE2D0E268DB681B681360044BD3F8A9
:109D40001034DB681C6001E04FF0FF3010BC70473E
:109D5000F426002038B5094BD3F81044012283F8CB
:109D6000202454B11546E3685D7123685B68204682
:109D70009847E3681C68002CF5D138BDF426002014
:109D800070B582B004460D46C388A3B9217A05296F
:109D90000FD0637ABBB9227A104B53F822600021AE
:109DA000A088FFF7EFFB034632460D49284600F036
:109DB00072FE02B070BD0B4A00920B4A0B49284656
:109DC00000F069FEE2E7A088FFF7FCFB084B53F8C0
:109DD00020200849284600F05EFEDCE7288A0200C1
:109DE000888902007C8902005C8902006489020083
:109DF000048A02008489020010B50C46037A052B00
:109E00000FD0437A3BB90A49204600F044FE204671
:109E100000F035FE10BD074A0749204600F03BFE22
:109E2000F1E7002AF3D00249204600F034FEEEE7C5
:109E3000948902007C890200848902002DE9F043A4
:109E400085B080460D4617461E460C9C94F80C9033
:109E50000023237321463046FFF792FF062F09D8CF
:109E6000DFE807F00412181F28334000414620465F
:109E700000F011FE002221463046FFF7BDFF84F8B6
:109E80000C9005B0BDE8F0832A684146204600F0FA
:109E900002FEEFE76B682A684146204600F0FBFDB2
:109EA000E8E7AB6800936B682A684146204600F0FB
:109EB000F2FDDFE7EB680193AB6800936B682A68FB
:109EC0004146204600F0E7FDD4E72B690293EB689A
:109ED0000193AB6800936B682A684146204600F006
:109EE000DAFDC7E76B6903932B690293EB68019373
:109EF000AB6800936B682A684146204600F0CBFDB2
:109F0000B8E700002DE9F04F83B00192082902D98B
:109F100003B0BDE8F08F07460E461D4693F80C903F
:109F200000241C7319461046FFF72AFFDFF878A0BB
:109F3000DFF8788006E05146284600F0ACFD013499
:109F4000082C07D0A642F6D93A5D4146284600F0D3
:109F5000A2FDF4E71649284600F09DFD0024DFF835
:109F600054B0DFF854A006E05946284600F093FDAF
:109F70000134082C0FD0A642F6D917F804804046C9
:109F80000DF05AFA002814BF42462E2251462846A8
:109F900000F081FDECE7012229460198FFF72CFF34
:109FA00085F80C90B4E700BFA089020098890200F0
:109FB000A489020090890200A889020000B585B03A
:109FC000002101910291039001AA44F2010000F0E6
:109FD00003F805B05DF804FB10B572B6FFF7BAFEE2
:109FE000FFF710FB0028FBD10D4C0E4BE41AE408E0
:109FF00024040D4944F00100FFF72CFC0B4944F008
:10A000000200FFF727FCBFF34F8F0949CA6802F42B
:10A01000E062084B1343CB60BFF34F8F00BFFDE7F7
:10A0200058880200188802003C8A0200488A020010
:10A0300000ED00E00400FA0570B50E4B4FF400325D
:10A04000C3F880200C4D4FF48033C5F84833C5F871
:10A05000083301266E60094C34434FF43C60A0473E
:10A06000AE600025064B1D604FF43C60A047054BD9
:10A070001D7070BD00E100E000100140588A020030
:10A08000CC2C0020BD2C00200B4A53780133DBB2CE
:10A0900092789A4208BF0023074A12789A4208D061
:10A0A00003700548437803EB430300EBC30004301F
:10A0B00070470020704700BFB02B002030B583B040
:10A0C00004460D4600238DF806300DF1060000F021
:10A0D000C7FA0DF10700FFF7D7FF88B1057044609C
:10A0E0009DF80720094B5A709DF8060000F0E4FA2D
:10A0F000074B4FF48012C3F80021002003B030BD9D
:10A100009DF8060000F0D8FA0420F7E7B02B0020F5
:10A1100000E100E0F8B5254B0022C3F84021C3F868
:10A120004421C3F84821C3F84C21C3F80021C3F8E7
:10A1300004211F4B1B686BB302F1804202F5883289
:10A14000D2F804451B4A1268A41A24F07F44002662
:10A15000374605E01F745A699869904755B12B46F8
:10A160001A68A24206D8A41A1644DD691A7C002A8D
:10A17000F4D0EFE7104B1B78104A12789A420AD0BD
:10A180000D4B1A780E4B43F822600E4B4FF48012A1
:10A19000C3F80021F8BD0133DBB2022B02D0064A1E
:10A1A0001370EDE7044B00221A70E9E7001001403C
:10A1B000D02C0020CC2C0020C92C0020C82C002042
:10A1C000C02C002000E100E02DE9F04F83B08A4B65
:10A1D0001B788A4A12789A4243D0894A1768013319
:10A1E000DBB2022B16D0844A1370834B1A78854B4E
:10A1F00053F822107B1823F07F43814A1360824B6F
:10A200001B68002B38D0002425462046A6464FF078
:10A21000010C15E0784B00221A70E6E70CB17A4881
:10A220000360521A1A60012301931CE03E1826F0C5
:10A230007F465E609C60DD611D46644662B11346E8
:10A240001A689142EAD3891A1044C3F800E0DA6927
:10A25000DC68002CF1D0E9E76B4B1A600123019315
:10A2600001E000250195684BD3F800B04FF00009DC
:10A27000664B43F0010A64E01D4601230193F2E7B7
:10A28000634A002111708CE05F4B1D68002D58D08F
:10A2900000232B74ED69002DFBD15B4B00221A606B
:10A2A0004FE0594BD3F80080B8F1000F16D0444569
:10A2B00017D046463746F66986B1B442FAD1BE4257
:10A2C00011D03168F369FB6113B11A680A441A604E
:10A2D0004D4B1B68984518BF4FF0010900232374AC
:10A2E0002FE046464746D8F81C30474A1360002BFB
:10A2F000E7D10123474A9360414A00211160464A51
:10A3000013704FF43C60D047DBE75B1A23F07F43C8
:10A31000A268934234BFD31A0023236020E03A4B53
:10A320001C600EE008461746121A1E46DB692BB168
:10A3300019689142F6D3C91B014419602260E36198
:10A34000F4610DB32C46ED6961682D4B1B68CA1A88
:10A3500022F07F4231488242D7D8A3681344236059
:10A3600000236360A36001222274E361264B1B6813
:10A37000002BD4D0226818688242D4D8821A1A607E
:10A38000E361214B1C60DCE7214A137852789A4242
:10A3900046D05A1CD2B21E490A70897891423FF4C5
:10A3A0006FAF03EB43021A4901EBC20294681279C2
:10A3B000022A3FF476AF032A3FF466AF012AC0D1E8
:10A3C000227C002ABDD1124903EB430201EBC202F9
:10A3D000D06860601069A0605269E26003EB4303DB
:10A3E00001EBC3018B69A3610B4B1B78002BABD036
:10A3F00000236360A8E700BFC82C0020C92C002000
:10A40000CC2C0020C02C0020D02C0020588A020028
:10A41000B02B002000100140BC2C0020FEFF7F006C
:10A42000B9F1000F06D1314B1B689B4502D1019B4E
:10A43000002B34D02D4B1B68002B54D01F682C4BA5
:10A44000D3F804552B4B1C682E1B26F07F46033691
:10A45000294B1B784BB3B7422CBFE419A41924F045
:10A460007F43234AC2F84035D2F80425521B22F01C
:10A470007F4203325B1B23F07F439A420FD91C4B70
:10A48000D3F80425C3F840251C4B4FF43C6043F03F
:10A49000010398471A4B4FF40032C3F80021194BBF
:10A4A00000221A7003B0BDE8F08F03F1804303F57A
:10A4B00088334FF48032C3F84423C3F80423104A8E
:10A4C0004FF40031C2F8801111604FF00108C3F859
:10A4D00000800A4B4FF43C6043EA08039847064B60
:10A4E00083F80080B7E7FFF7A7FDD8E7D02C00205E
:10A4F00000100140CC2C0020BD2C0020588A020006
:10A5000000E100E0BC2C002010B5FFF795FD114BD9
:10A510000020187058700B229A700F4B18600F4B68
:10A5200018700F4B18700F4B4FF48012C3F8802136
:10A53000C02183F814131A6002F18042A2F56F2241
:10A540001F24C2F8084583F81113D2F80425064BDE
:10A550001A6010BDB02B0020D02C0020C82C002089
:10A56000C92C002000E100E0CC2C0020094B9B7896
:10A570003BB142B148B10368187C40B959745A6183
:10A580007047082070470720704707207047082051
:10A59000704700BFB02B0020234B9B78002B34D09A
:10A5A000F0B583B004460D46164680B3042930D971
:10A5B000436983B3437C012B0CBF0F460027002364
:10A5C0008DF807300DF1070000F04AF80DF1060094
:10A5D000FFF75AFD08B3012202704460134AD2F813
:10A5E00004258260C560076146619DF806200E4B18
:10A5F0005A709DF8070000F05FF80D4B4FF4801281
:10A60000C3F80021002003B0F0BD082070470820E7
:10A61000F9E70720F7E70820F5E79DF8070000F0C5
:10A620004BF80420EFE700BFB02B002000100140E2
:10A6300000E100E008B5094B9B7843B148B143699C
:10A640004BB1002303740221FFF738FD08BD082039
:10A65000FCE70820FAE70820F8E700BFB02B00204D
:10A66000EFF3108272B6114B9B68C3B930B40F4937
:10A6700001238B600E4BD3F880400E4D2C400C60B4
:10A68000C3F88050D3F884404C604FF0FF31C3F8DA
:10A6900084100023037002B962B630BC70470123F6
:10A6A00003700AB962B67047704700BFD42C00200F
:10A6B00000E100E0FC06FFBD084B9B686BB160B990
:10A6C000EFF3108172B6054B1868054A10605868A0
:10A6D000506000229A6001B962B67047D42C002005
:10A6E00000E100E079B110B40C46B2FBF3F103FBDA
:10A6F000112189B249B90460416081608281C381BE
:10A70000084610BC70470E2070470920F9E782B058
:10A7100050E8022FC188B2EB324F4FF0000317BF51
:10A7200092B241EA014142EA014104E04268B2EBDF
:10A73000324F08BF012340E80212002AE8D18DF809
:10A7400007309DF8073013F0FF0F14BF00201120D1
:10A7500002B0704700B583B050E8013F1FFA83FE96
:10A76000B0F80EC0E644B0F80CC0E64528BFAEEB2A
:10A770000C0EB0F808C0E64502BFBFF32F8F0022D1
:10A7800008E0CEEA030E40E801ECBCF1000FE3D193
:10A790004FF001028DF803200193019B0B609DF89F
:10A7A00003202AB1006810FA83F003B05DF804FBBF
:10A7B0000020FAE70A884B889A4201D000207047AF
:10A7C00050E8012FC2EA024240E80123002BF7D1F2
:10A7D0000120704700B583B050E8023F1FFAA3FE86
:10A7E000B0F806C0E64502BFBFF32F8F002211E08C
:10A7F000B0F80EC0E644B0F80CC0E64528BFAEEB9A
:10A800000C0EC3EA0E4E40E802ECBCF1000FE3D19F
:10A810004FF001028DF803200193019B0B609DF81E
:10A8200003202AB1006800EB134003B05DF804FB7D
:10A830000020FAE70A884B889A4201D0002070472E
:10A8400050E8022FC2EA224240E80223002BF7D14F
:10A850000120704708B501F01F024B09012191400A
:10A8600000EB830000F06FF808BD10B501F01F0485
:10A870004B090121A14000EB830000F059F8E040B2
:10A8800000F0010010BD08B501F01F0301229A403D
:10A890004B09D14300EB830000F060F808BD4B0981
:10A8A00050F8230001F01F01C84000F0010070477C
:10A8B0002DE9F04705460E4601F1FF3A4FEA5A1AD4
:10A8C0004FF0000904E009F10103CA4522D099467E
:10A8D00005EB890755F82940E44394FAA4F4B4FA47
:10A8E00084F41F2CEFD84FEA491804EB4914A64210
:10A8F000E9D921462846FFF7B8FF60B13C68E44338
:10A9000094FAA4F4B4FA84F41F2CDCD84444A6428C
:10A91000EFD8D8E734462046BDE8F087034653E831
:10A92000000F0A4643E8002C9CF0000FF7D1704757
:10A93000034653E8000F40EA010243E8002C9CF074
:10A94000000FF6D17047034653E8002F42EA01009A
:10A9500043E8000C9CF0000FF6D17047034653E823
:10A96000002F02EA010043E8000C9CF0000FF6D132
:10A970007047034653E8000F00EB010243E8002C48
:10A980009CF0000FF6D17047034653E8002F02EB0E
:10A99000010043E8000C9CF0000FF6D1704703461D
:10A9A00053E8002FA2EB010043E8000C9CF0000FDD
:10A9B000F6D1704708B50121FFF7BAFF08BD8446FC
:10A9C000B8B143688268D21AD2B201680B60531ED4
:10A9D000DBB24AB1DCF800100A68501C0860137042
:10A9E000013BDBB2FF2BF5D1DCF800300020187101
:10A9F00070470E20704730B583B0044600238DF8B1
:10AA000007300DF10700FFF72BFE2268136861681D
:10AA10008B4217D9591E116013F8013C228AE56850
:10AA200002FB03552268A36811685B1ADBB2117937
:10AA3000994200D213719DF80700FFF73DFE2846AA
:10AA400003B030BD0025F6E730B583B005460C46AF
:10AA500000238DF807300DF10700FFF701FE2A688B
:10AA60001368591C1160E968641A298AB4FBF1F46F
:10AA70001C709DF80700FFF71FFE03B030BD826811
:10AA800042B110B504464369016800699847002344
:10AA9000A36010BD70470EB400B582B0039921B118
:10AAA00004AB019301AA00F075F802B05DF804EB65
:10AAB00003B0704710B5026883685C1C8460D15491
:10AAC000826843689A4200D210BDFFF7D8FFFBE7C7
:10AAD0002DE9F84F81460F4615461E46DDF828A0A1
:10AAE0000B9AA94225D30B464FF00108B3FBF5F3AF
:10AAF00008F101089D42F9D9B04538BFB04612F0BF
:10AB0000010B14D1BAF1000F11D012F0020F13D0C3
:10AB1000002E14BF20243024D04508D20AF1FF3A79
:10AB200021464846FFF7C6FFD045F7D1C24601246B
:10AB300007E04FF00108DFE72024EDE7013E05FBC9
:10AB400004F4012EFAD8B7FBF4F39D42F7D9104E66
:10AB5000B7FBF4F304FB1377F15C4846FFF7AAFF59
:10AB60002346B4FBF5F4AB42F2D2BBF1000F0DD09B
:10AB7000BAF1000F0AD0D04508D220240AF1FF3ADA
:10AB800021464846FFF796FFD045F7D1BDE8F88F3C
:10AB9000608A0200002900F0A4812DE9F04F85B001
:10ABA000074691460C46DFF8ACB293E0002602E07F
:10ABB00046F00106013423782D2BF9D0302B06D036
:10ABC0002B2B08D02A2B0AD0214600251BE046F06B
:10ABD00002060134EFE746F004060134EBE7D9F84A
:10ABE00000301A1DC9F800201D68013423782E2B6F
:10ABF00012D04FF0000823782CE005EB850503EB1D
:10AC00004503A3F130050C4611F8013BA3F13002D6
:10AC1000D2B2092AF1D9E9E7611C6378A3F13002C5
:10AC2000D2B2092A10D84FF0000808EB880803EBCD
:10AC30004803A3F1300811F8013FA3F13002D2B26A
:10AC4000092AF2D90C46D6E70C464FF00008D2E7A5
:10AC500014F8013F03F0FB02682AF9D0252B00F01D
:10AC60003281A3F15802D2B2202A2ED8583B202B91
:10AC70002BD8DFE813F0B9002A002A002A002A00A6
:10AC80002A002A002A002A002A002A0021003B006C
:10AC90002A002A002A002A003B002A002A002A0053
:10ACA0002A002A002A0010012A002A00C7002A00D0
:10ACB000AB002A002A00B900D9F800301A1DC9F8E3
:10ACC000002019783846FFF7F5FE01342378002B71
:10ACD00000F0FE8014F8011B002900F0F9802529FE
:10ACE0003FF464AF3846FFF7E5FEEFE7D9F80030F0
:10ACF0001A1DC9F80020D3F800A08AEAEA73A3EB72
:10AD0000EA73092B40DD012219468BFB03C0DB17D8
:10AD1000C3EBA00301326329F6DC424538BF42464B
:10AD2000029235B1BAF1000F02DB16F0040F00D029
:10AD3000013D16F0020F02D0B8F1000F11D016F04D
:10AD4000010F0ED16DB1029BAB420AD203941C4697
:10AD5000013D20213846FFF7ADFEAC42F8D1039CFF
:10AD6000029DBAF1000F11DB16F0040F15D106F0A9
:10AD70000303022B16D00196009543460A22514642
:10AD80003846FFF7A5FEA0E70122C6E7CAF1000A90
:10AD90002D213846FFF78EFEE9E72B213846FFF7D5
:10ADA00089FEE4E7B8F1000FE5D1002DE3D0029B66
:10ADB000AB42E0D203941C46013D30213846FFF7F8
:10ADC00079FEAC42F8D1039C029DD4E7D9F800305B
:10ADD0001A1DC9F8002019680196009543460A22F9
:10ADE0003846FFF775FE70E7D9F800301A1DC9F82C
:10ADF0000020196801960095434610223846FFF757
:10AE000067FE62E7D9F800301A1DC9F80020D3F8B0
:10AE1000008016F001061FD098F80010B9B1464620
:10AE2000C8F1010808EB060A3846FFF743FE16F89A
:10AE3000011F0029F6D155457FF647AF2026013D79
:10AE400031463846FFF736FE5545F8D13DE74FF01D
:10AE5000000AF0E767666666B8F1000F03D0404667
:10AE60000CF062FD0646B54208D94FF0200A013DBC
:10AE700051463846FFF71EFEB542F8D198F800104B
:10AE800000293FF422AF3846FFF714FE18F8011FDF
:10AE90000029F8D119E7D9F800301A1DC9F80020A7
:10AEA0001D6830213846FFF705FE78213846FFF748
:10AEB00001FE0023019308230093102229463846FF
:10AEC000FFF706FE01E725213846FFF7F3FDFCE614
:10AED0003B7B13B905B0BDE8F08F3846FFF7CFFDD7
:10AEE000F8E770472DE9F84F044689469DF828A0F9
:10AEF000B0F80680467908FB06F6043E1F1DB7FB36
:10AF0000F8F008FB1071156805EB030CB44588BF19
:10AF1000F51A1560474502D324680138FCD1A8EB27
:10AF20000106AE4228BF2E46E5B10027BB460CE025
:10AF3000324619460CF07AFC2468AD1B374446466D
:10AF4000A84528BF2E46594665B109EB07030431D1
:10AF50006018BAF1000FEBD03246014618460CF0EB
:10AF600065FCE9E7BDE8F88F08B5FFF728FD08BDE7
:10AF7000F8B504464679711E11D0024600231268C6
:10AF800001339942FBD1176846B100252146246858
:10AF90003846FFF759FD0135AE42F7D8F8BD0146F6
:10AFA0000068FFF751FDF9E72DE9F8430746048AE9
:10AFB000231F01F103089844B8FBF3F8FFF71BFDCA
:10AFC000064608B30023037101234371043CC48087
:10AFD0005FFA88F80760B8F1010815D0044600252B
:10AFE000A1463846FFF707FD044648B1737901339F
:10AFF0007371C9F8000007600135A845F0D103E07E
:10B000003046FFF7B5FF26463046BDE8F88308B561
:10B0100001210430FFF7B8FC08BD10B5044601213A
:10B020000430FFF7BCFC10F0FF0F00D010BD20462D
:10B03000FFF79EFFFAE700B585B003920022009269
:10B0400003AAFFF74FFF05B05DF804FB00B585B01C
:10B0500003920122009203AAFFF744FF05B05DF8B6
:10B0600004FB41DF7047000010B50024054B1C7045
:10B07000054B1C60BFF35F8F0449054800F023F8BF
:10B08000204610BDE82C0020EC2C00207C8A020019
:10B09000E02C002008B507F05DFA18B920BF40BFCA
:10B0A00020BF08BDFFF7DDFFFBE782680023936048
:10B0B00082681361826853618268D36082685360DA
:10B0C00082681360704701600B6843604A6893426E
:10B0D00004BF002343607047436843B1026891682E
:10B0E0000B4443605268934204BF0023436070479F
:10B0F0000E4A02F59471914215D9A1EB020C4FEA68
:10B10000DC7303EBEC035B1002EBC30C52F833303F
:10B11000834288BF6146EED802D20CF10802EAE70A
:10B12000DCF8040070470020704700BF888E0200E2
:10B1300008B5FFF7DDFF024B002808BF184608BD21
:10B14000748E020029DF704728DF70470268936819
:10B1500033B300B587B000230093029303930493A5
:10B1600001918368059303793BB1012B0FD093685C
:10B170006846984707B05DF804FB01238DF800305E
:10B1800003690293C368039343690493EFE70223BF
:10B190008DF80030C3681B03029343690493E6E70C
:10B1A000704708467047002070470000024B187A2D
:10B1B000003818BF012070478C2D0020034B01225E
:10B1C0005A74187AB0FA80F0400970478C2D00202C
:10B1D00008B510461A460CF029FB002008BD0000F7
:10B1E00008B51422002104480CF049FB0348FFF77E
:10B1F0008EFA002008BD00BF8C2D00207C2D002081
:10B2000008B5094B43600948FFF7D4FB08B100209B
:10B2100008BD07F09FF9054B18741C238C220449C4
:10B220000448FFF75FFAF2E7B08F02008C2D002090
:10B23000F02C00207C2D002008B5831E012B46D861
:10B24000254B1B7A002B42D0022B3BD1022807D082
:10B25000214BDB680133082B27D81F4AD36031E02C
:10B260001E4B18681C4B0022DA6003795BB1012B7E
:10B2700028D10369013303614269934222D100213D
:10B28000154B197218E042698369D11AB1F5805FD4
:10B2900094BF5B1803F5805383619A4212D1002159
:10B2A0000D4B19720D4B186806E00B4B0022DA604B
:10B2B0001A720A4B18680D21FFF748FF0849094820
:10B2C000FFF7B8FA044B5B7C13B900F00DF808BD2A
:10B2D00007F02CF9FBE700BF8C2D0020A42D0020E7
:10B2E000A02D00207C2D002010B5264B1B7AABB181
:10B2F000244B02221A72244B1C682379D3B1012BF0
:10B3000031D003212046FFF721FF1E4B00221A7285
:10B310005A601E491E48FFF78DFA10BD1B491C4894
:10B32000FFF758FA184B18600028E1D1154B00229E
:10B330005A60F2E7A3696269D21AB2F5805F28BF4A
:10B340004FF480529208E1682069012A38BF012237
:10B3500019441844FFF7F6FE58B11128D1D1094B12
:10B3600001221A72D9E7E06823691844FFF7ECFE5E
:10B37000F2E7044B1B7C002BCFD100210220FFF70A
:10B380005BFFCAE78C2D0020A42D0020A02D0020FB
:10B390007C2D002008B500F0FD03012B00D008BD76
:10B3A000054B00225A74012814BF00200120187494
:10B3B000FFF79AFFF3E700BF8C2D002008B5054882
:10B3C000FFF7F8FA10B9044B5B7C03B108BDFFF737
:10B3D0008BFFFBE7902D00208C2D00202DE9F04104
:10B3E00082B00746884616461D4601A90E48FFF75B
:10B3F000B1F9B0B104461C2200210CF040FA01233F
:10B4000023712760A5604FEA1831E160666101A9E8
:10B410000548FFF7CFF9FFF7D1FF002002B0BDE8E4
:10B42000F0810420FAE700BF7C2D00202DE9F043D5
:10B4300083B080460F4691461E4601A90F48FFF78C
:10B4400089F9C0B104461C2200210CF018FA00252D
:10B450002571C4F800800A9BA3602761C4F80C9092
:10B46000666101A90548FFF7A5F9FFF7A7FF284680
:10B4700003B0BDE8F0830420FAE700BF7C2D002074
:10B4800031DF704710B584B08DF8070000238DF8C8
:10B490000F300DF10F00FFF7E3F807F05BF828B16C
:10B4A0009DF80F00FFF708F904B010BD064C0DF130
:10B4B0000701204600F05AF9204600F04AF900281A
:10B4C000EED000F0DFF8EBE7F087020000B583B0C4
:10B4D00020B103280BD003B05DF804FB0F4B1B78A1
:10B4E000012BF8D100F0CEF800F0D4F8F3E70023F8
:10B4F0008DF807300DF10700FFF7B2F8074B1B7806
:10B50000012B04D09DF80700FFF7D6F8E3E70449C4
:10B51000044800F073F800F0A3F8F3E7F82D0020DA
:10B5200085B40100F92D0020154B1B782BBB00B50D
:10B5300083B0144B002808BF18460288104BA3F8AC
:10B54000012000238DF807300DF10700FFF788F880
:10B5500007F000F830B90C490C4800F04FF848B932
:10B5600000F07EF8064B01221A709DF80700FFF7E5
:10B57000A3F8002003B05DF804FB8520704700BFEE
:10B58000F82D0020E08F020085B40100F92D002085
:10B590002DE9F04182B007460E460025DFF85880BD
:10B5A0000DE032463946404600F04EF9044600F0C0
:10B5B00057F89DF80700FFF77FF8022C17D18DF898
:10B5C00007500DF10700FFF74BF806F0C3FF002806
:10B5D000E7D09DF80700FFF76FF831463846FFF7D0
:10B5E0004FFF044642F207039842E6D10524204665
:10B5F00002B0BDE8F08100BFF0870200144B1B7859
:10B600001BBB144B1960037813F0010F06D0124ACC
:10B61000D2F8043543F00103C2F804350E4AD2F8DB
:10B62000003223F00103C2F8003243785B01DBB241
:10B630000A4A82F80D334FF40053C2F88031136088
:10B64000034B01221A70002070478520704700BF0D
:10B65000002E0020FC2D002000D0004000E100E082
:10B6600082B0074B0022C3F80021D3F800210192D9
:10B67000019A0122C3F804231A6002B0704700BF88
:10B6800000D00040024B0122C3F808235A607047E3
:10B6900000D00040064B0122C3F808235A60054B36
:10B6A0004FF40052C3F88020034B00221A707047F9
:10B6B00000D0004000E100E0002E002000B583B083
:10B6C000084B0022C3F80021D3F800210192019A0F
:10B6D000D3F80805044B1B68C0B2984703B05DF867
:10B6E00004FB00BF00D00040FC2D00202DE9F041FC
:10B6F00004468846164603681F685D68AF4284BFEB
:10B7000085680135ED1BC268416807FB0211B5422F
:10B710000DD306FB02F240460CF088F83E44A368C5
:10B720009E4288BF002623681E60BDE8F08105FBAD
:10B7300002F73A4640460CF079F8751BE26805FBC3
:10B7400002F2616808EB07000CF070F823681D60D6
:10B75000EBE703681A685B6881688B4234BF581C4A
:10B760000020824214BF002001207047F0B583B052
:10B7700004460D4600238DF807300DF10700FEF753
:10B780006FFF2046FFF7E5FF002851D0237CCBB99F
:10B79000236858685A68A1688A4252D300225A60C6
:10B7A00022681368A1688B4234BF01330023136001
:10B7B000E268531E072B31D8DFE803F0061E302362
:10B7C00030303028042410E02A7863681A54226844
:10B7D000136851688B4282BFA06801300918CB1AE8
:10B7E0009168994238BF936000249DF80700FEF7E6
:10B7F00063FF204603B0F0BD2A88636823F8102059
:10B80000E5E72A68636843F82020E0E7D5E90067A8
:10B81000636803EBC000C0E90067D8E763682946A6
:10B8200000FB02300CF002F8D1E700225A60BFE7BB
:10B83000236858685A68A1688A42F6D201325A6071
:10B84000B6E701325A60ABE770B582B0144612B960
:10B85000204602B070BD06460D4600238DF8073025
:10B860000DF10700FEF7FCFE3268136851688B4249
:10B8700008D8CB1A9C420AD905249DF80700FEF788
:10B880001BFFE5E7B26801320A44D31AF2E7224609
:10B8900029463046FFF72AFF0024EEE74FF07043B9
:10B8A00093F8E03F062B00F09A804FF08053D3F8D6
:10B8B0004432C3F342334FF08042C2F83C354FF07C
:10B8C000704393F8E03F062B00F0C1804FF08043B7
:10B8D0000022C3F80C21C3F81021C3F838254FF01B
:10B8E000704393F8E03F062B00F0CA804FF080527F
:10B8F000D2F80414B04BC3F82015D2F80814C3F8DA
:10B900002415D2F80C14C3F82815D2F81014C3F873
:10B910002C15D2F81414C3F83015D2F81814C3F843
:10B920003415D2F81C14C3F84015D2F82014C3F80B
:10B930004415D2F82414C3F84815D2F82814C3F8D3
:10B940004C15D2F82C14C3F85015D2F83014C3F8A3
:10B950005415D2F83414C3F86015D2F83814C3F86B
:10B960006415D2F83C14C3F86815D2F84014C3F833
:10B970006C15D2F84424C3F8702503F54053FB221C
:10B98000C3F818254FF0704393F8E03F062B00F002
:10B99000B1804FF08043D3F8003413F0010F05D08D
:10B9A0004FF080436FF00102C3F800244FF0805342
:10B9B000D3F83031062B00F0BD804FF01023D3F8C0
:10B9C0000032002BC0F2C5804FF01023D3F80432B0
:10B9D000002BC0F2BE80794B794A1A6070474FF055
:10B9E0007043D3F8E43F13F00F0F1BD14FF07043B7
:10B9F000D3F8E83F03F0F002302A03D003F0E0036D
:10BA0000402B0FD14FF08053D3F82433C3F30423DA
:10BA10006C4AC2F840354FF0704393F8E03F062B74
:10BA20007FF443AF4FF07043D3F8E43F13F00F0FB0
:10BA30007FF43BAF4FF07043D3F8E83F03F0F003DF
:10BA4000302B7FF432AF604B604A5A672DE74FF0DE
:10BA50007043D3F8E43F13F00F0F7FF437AF4FF08C
:10BA60007043D3F8E83F03F0F003302B7FF42EAFA0
:10BA7000574AD2F8FC3023F08073C2F8FC3025E737
:10BA80004FF07043D3F8E43F13F00F0F13D14FF092
:10BA90007043D3F8E83F03F0F003302B0BD14FF0A5
:10BAA00080430322C3F8A0254FF0704393F8E03F92
:10BAB000062B7FF41BAF4FF07043D3F8E43F13F035
:10BAC0000F0F7FF413AF4FF07043D3F8E83F03F04C
:10BAD000F003302B7FF40AAF3E4B0522C3F810264B
:10BAE0000122C3F888260022C3F818263F22C3F893
:10BAF0001426FBE64FF07043D3F8E43F13F00F0F2A
:10BB00007FF447AF4FF07043D3F8E83F03F0F00203
:10BB1000302A04D003F0E003402B7FF43AAF4FF01B
:10BB20008053D3F8583203F04F034FF08042C2F8ED
:10BB3000E43E2EE74FF08053D3F83431062B7FF4E8
:10BB40003CAF254AD2F83C3743F48063C2F83C3717
:10BB500033E7224B0122C3F804251A46D2F80034F9
:10BB6000002BFBD04FF010231522C3F800221B4AF4
:10BB7000D2F80034002BFBD04FF010231522C3F86D
:10BB80000422164AD2F80034002BFBD0134B0022BB
:10BB9000C3F804251A46D2F80034002BFBD0BFF3BB
:10BBA0004F8F0B49CA6802F4E0620D4B1343CB6020
:10BBB000BFF34F8F00BFFDE700C000401C250020F1
:10BBC0000090D0030030014000C007400DF0ADBA36
:10BBD00000ED00E0005000400010004000E0014097
:10BBE0000400FA0538B538B1012813D10E4B0122F3
:10BBF0009A701C46154613E00B4B01225A701C46E6
:10BC0000002504E01A68A2605B6828469847A3688C
:10BC1000002BF7D138BD1A6822615B682846984727
:10BC20002369002BF7D1F5E7042E002000B17047FF
:10BC300038B5074B01225A701C46002504E01A68EB
:10BC4000A2605B6828469847A368002BF7D138BDEF
:10BC5000042E002010B50D4B1B7813B1852420460F
:10BC600010BD0A4B00229A605A601A61DA600848D7
:10BC700000F05EF8044606F06DFC18B1034B01229B
:10BC80001A70ECE700F064F8F8E700BF042E00201B
:10BC9000E5BB010000B583B000238DF807300DF13E
:10BCA0000700FEF7DDFC094BDA68013ADA60DB6871
:10BCB00033B19DF80700FEF7FFFC03B05DF804FB0D
:10BCC00000F05CF8014B00229A70F2E7042E00208D
:10BCD00000B583B001280AD0032820D010B103B0EA
:10BCE0005DF804FB104B0122C3F88020F7E7002326
:10BCF0008DF807300DF10700FEF7B2FC0B4B1B78F7
:10BD000053B10A4BDA680132DA6001229A709DF869
:10BD10000700FEF7D1FCE2E7FFF79CFFF1E700F038
:10BD200017F8FFF7B7FFDAE700E100E0042E002084
:10BD30000346064A12793AB9044A0020907113600A
:10BD4000012313715071704785207047182E002011
:10BD5000094B1B6813F0010F05D04FF08043002200
:10BD6000C3F818257047044BC02283F80023012232
:10BD7000C3F880211A60F0E700E100E04FF0804353
:10BD80000122DA601A46D2F8183413F4803FFAD14F
:10BD90007047000000B585B04FF08043D3F8003104
:10BDA0009BB14FF080430022C3F80021D3F800215B
:10BDB0000092009A0122C3F80823264B5B7923B92D
:10BDC000244B5A711B68002098474FF08043D3F8EA
:10BDD00004317BB14FF080430022C3F80421D3F833
:10BDE00004210192019A0222C3F80823194B1B680F
:10BDF000012098474FF08043D3F810317BB14FF0CA
:10BE000080430022C3F81021D3F810210292029A35
:10BE10001022C3F808230F4B1B68022098474FF0ED
:10BE20008043D3F80C3193B14FF080430022C3F824
:10BE3000342CC3F80C21D3F80C1103910399082179
:10BE4000C3F80813034B9A711B680320984705B089
:10BE50005DF804FB182E0020054B4FF0FF3243F82D
:10BE60002020072803D91844FF2380F84430704766
:10BE7000202E00201B4B93F853308BBB10B582B0A3
:10BE8000184A02F12B034B32FF2103F8011F9342A2
:10BE9000FBD10024E0B2FFF7DFFF01340B2CF9D116
:10BEA000104C0422002104F14F000BF0E8FC0E4B73
:10BEB000C02283F806234022C3F880211A600B4B6E
:10BEC0000020C3F87C01D3F87C210192019A4FF045
:10BED0000042C3F80423012384F8533002B010BD9C
:10BEE00008207047202E002000E100E000600040A4
:10BEF000034B93F85300003818BF0120704700BF70
:10BF0000202E0020364B034493F92C30B3F1FF3F31
:10BF100001D00820704730B48B780BBB304B034402
:10BF2000FE2283F82C204B78012B52D00123834032
:10BF30004FF0A042C2F80C3500F5E0724FF0A0437C
:10BF4000032143F822102749C20800F0070001230B
:10BF500003FA00F08B5C18438854002030BC704713
:10BF6000214A002352F8044FB4F1FF3F04D00133BB
:10BF7000082BF7D10420F1E75DB2194A141884F8B0
:10BF80002C50002442F82340B5F1FF3F08BF0420A5
:10BF9000E4D00A784C78AB0003F1804303F5C0434A
:10BFA000D3F8105525F4981525F4F855C3F8105515
:10BFB000D3F81055120402F44032240504F480141E
:10BFC0002243040204F4F85422432A43C3F8102500
:10BFD000A9E783404FF0A042C2F80835ACE700BFA4
:10BFE000202E00206F2E00201C2E002038B5044685
:10BFF000164B034493F82C00072819D9134B1A1930
:10C00000FF2182F82C1004F0070101228A404F33EF
:10C01000E108585C10420AD004F5E0744FF0A040EB
:10C02000022540F82450585C20EA02025A5438BDD8
:10C03000FFF712FF054B234493F92C3003F5A2734D
:10C04000034A002142F82310D8E700BF202E002029
:10C0500000600040012383404FF0A042C2F8083541
:10C060007047012383404FF0A042C2F80C3570475F
:10C07000144B034493F92C30072B14DCDAB2072A53
:10C0800010D89A0002F1804202F5C042D2F8101591
:10C0900021F00101C2F81015012202FA03F30A4A45
:10C0A000C2F808337047800000F1A040D0F8003794
:10C0B00023F44033C0F80037D0F80037C0F8003719
:10C0C000704700BF202E00200060004038B50446B5
:10C0D000FFF7CEFF154B234493F92C30DAB2072A31
:10C0E00005D803F5A273124A002142F8231004F088
:10C0F0000702012393400F49E208885C18420AD0E6
:10C1000004F5E0704FF0A04C02254CF82050885CFC
:10C1100020EA03038B540548044494F82C00FFF7ED
:10C120009BFEFF2384F82C3038BD00BF202E00205A
:10C13000006000406F2E002070B50F4D05F12B04FC
:10C1400005F14B06C5F1FF2505F57F05D53503E063
:10C15000FFF74CFFB4420AD0281914F9013F13F13C
:10C16000020FF5D0002BF5DBFFF7B0FFF2E7024B33
:10C17000002283F8532070BD202E00202DE9F04FBF
:10C1800087B000250595694B0122694E2F46694C01
:10C1900003E052000433A3420CD019680129F8D1FE
:10C1A000D6F804131142F4D01F6019680391039963
:10C1B0001543EEE75E4BD3F87C31012B06D015F02A
:10C1C000FF0F2FD0002401265B4F16E0584B0022B2
:10C1D000C3F87C21D3F87C310493049B4FF0A04337
:10C1E000D3F81035059315F0FF0F1DD045F000452D
:10C1F000E8E776000134082C14D03542F9D0A300CA
:10C2000003F1804303F5C043D3F81005D3F81015AC
:10C2100057F82430002BECD0C1F30141C0F30420C7
:10C220009847E6E7002D66DA002301934FF0FF33CD
:10C230000293414D05F14F064FF0020905F14C0400
:10C240004FF0000801270FE003290BD10DF1040E78
:10C250001EF802C04CEA030C0EF802C026E0BEF144
:10C26000030F4FD0B4423CD014F9013BB3F1FF3F70
:10C27000F8D05FFA83FC03F03F00C3F3C20203F07F
:10C28000070307FA03F306A9114411F8101C194219
:10C29000E8D04FEA9C1105EB000C9CF92CC055F836
:10C2A0002CA0BAF1000FCFD00329CFD04FEA800CD9
:10C2B0000CF1A04CDCF800E7CEF3014E0DF1180BA9
:10C2C0005A4412F8042C1A42C9D0BEF1020FC9D147
:10C2D000032904D0BAF1000FC4D0D047C2E70A4600
:10C2E00013E0B8F1000F06D04FF0A043D3F810359B
:10C2F000059A9A4202D107B0BDE8F08F0593019BE1
:10C3000002939BE70329E5D14A46DCF8003723F482
:10C310004033CCF80037DCF8003743EA0243CCF86E
:10C32000003708F101085FFA88F8D3E700610040A0
:10C330000060004020610040202E002000B585B044
:10C3400001238DF800308DF80810019243680168D0
:10C350006846984705B05DF804FB000030B589B029
:10C36000454BD3F82431002B3ED0434B0022C3F879
:10C370002421D3F824110291029902218DF8101082
:10C38000D3F88014C3F880140791D3F83C358DF8A6
:10C3900018303A4BD96805919A61DA615A68196880
:10C3A00004A89047344BD3F844315BB1324B0022A0
:10C3B000C3F84421D3F844310193019B2F4B9B696F
:10C3C000002B3FD12C4BD3F820315BB12A4B0022FC
:10C3D000C3F82021D3F820310093009B274B5B69E1
:10C3E000002B38D109B030BD234BD3F81031002BCE
:10C3F000D8D0214B0022C3F81021D3F8102103928A
:10C40000039AD3F83C151D4B9B699942CAD11B4B2B
:10C41000DB6983B11948C268174DD5F8004224F092
:10C420002004C5F8004283610369C3600023C3612F
:10C43000FFF784FFB6E7114800238361C268FFF766
:10C440007DFFAFE70D4882610B4BD3F83C15C26806
:10C45000FFF774FFB6E7084BD3F84C358DF8102082
:10C460008DF81830054B996805915A615A6819681A
:10C4700004A89047B6E700BF00200040742E0020BB
:10C48000F0B589B0784BD3F80431002B00F0AC80C4
:10C49000754B0022C3F80421D3F804310093009BAC
:10C4A000724B93F82E30002B00F081806F4B93F885
:10C4B0002F30002B40F0C3806B4BD3F80031002BA2
:10C4C00000F09880684B0022C3F80021D3F80031B7
:10C4D0000193019B654A538B92F82D108AB29342C7
:10C4E0001DD99B1A9BB261484383028992B2D31A29
:10C4F000426802EB43035C4AC2F82C36C2F830169D
:10C50000594B0022C3F80421D3F804210292029A65
:10C5100001225A606EE0554B00221A745DE093428E
:10C52000EED1524BDB685BB1504A012082F82F00FC
:10C53000002050834C4AC2F82C36C2F83016DFE790
:10C540004A4B012283F82F2000225A83D8E7474B19
:10C550005C69002C71D04FF0004500271E4601E0B9
:10C56000002C6AD0B4FA84F325FA03F224EA020418
:10C5700046339B0003F1804202F5E0421168002936
:10C58000EED0176012680492049A01228DF81420EC
:10C59000A3F58C73DA088DF8182083F00403C3F335
:10C5A00080038DF81930336805A89847D8E7002331
:10C5B0008DF814302D4B5A6806921A89ADF81C205C
:10C5C000DA68002AA7D0294B198B59835A60198140
:10C5D0000022DA60244B01221A60244C236805A84B
:10C5E0009847002384F82F30204B93F82E30002BEF
:10C5F0007FF462AF1C4BD3F810317BB11A4B002291
:10C60000C3F81021D3F810310393039B174B1A740E
:10C6100002228DF814201B6805A89847124BD3F806
:10C620001431002B93D0104A0023C2F81431D2F8F1
:10C6300014210592059A0D4A137409B0F0BD002328
:10C640008DF81430094B5A6806921A89ADF81C20EF
:10C65000DA68002A3FF45FAF044B198B59835A60A4
:10C6600019810022DA60B8E700700040982E00209F
:10C67000254B93F82C30002B43D110B483B0224BC0
:10C6800019600178214AC2F8F0154178C2F8F41512
:10C69000C17883F82E10012183F82C100021197421
:10C6A00083F82D10596183F82F106FF00044C2F801
:10C6B0000843C2F80411D2F804410194019CC2F865
:10C6C0000011D2F800110091009981784901C9B296
:10C6D0000F4880F807138021C0F880110160022103
:10C6E000C2F8041393F82E301BB113460122C3F88D
:10C6F0000423064B0122C3F80025002003B010BC20
:10C7000070470820704700BF982E0020007000403E
:10C7100000E100E02F4B1B7C002B59D10B79012B42
:10C720004BD92C4B03EB40031B7F2BB9294A92F8C2
:10C730002D30013382F82D3000F10C02254B03EB34
:10C740004203CA791A710A7A5A714B781B0103F0B5
:10C7500030038A78120202F4E06213430A7802F08E
:10C7600003021343CA78120302F4805213430A7976
:10C77000120402F4E02213434A79120502F48012F3
:10C7800013438A79120602F080721343020102F108
:10C79000804202F5E042C2F81835CB790A7A0001EE
:10C7A00000F1804000F5E040C0F81425C0F81035D5
:10C7B0000B79012B06D900207047074B0022C3F8E4
:10C7C0000025AEE7044B0122C3F800250020704786
:10C7D00011207047982E0020007000403B4B1B7CBE
:10C7E000002B70D130B482B0384A01241474384B15
:10C7F0000325C3F80853C3F82C16C3F8304692F843
:10C800002D30A3420DD900221146130103F18043BC
:10C8100003F5E043C3F81415C3F810150132082AD4
:10C82000F3D100F10C02294B03EB42031A79597939
:10C83000000100F1804303F5E043C3F81415C3F889
:10C840001025234B01221A605A6042F210732049CE
:10C85000D1F804210AB9013BFAD11D4B0022C3F8DB
:10C860000021D3F8001101910199C3F80421D3F8F4
:10C8700004310093009B154B93F82D30012B0FD9F9
:10C880001249087F4C7F130103F1804303F5E04315
:10C89000C3F81445C3F8100501320231082AF0D15B
:10C8A0000A4B93F82E304BB1094B0322C3F80423F3
:10C8B0000020064B187402B030BC7047044B0222B3
:10C8C000C3F80423F4E71120704700BF982E00201E
:10C8D00000700040024B187C003818BF01207047E0
:10C8E000982E002030B48CB244EA0244030103F1D4
:10C8F000804303F5E043C3F81C4540008024844096
:10C9000011F5006F1FD01D4900F1010C4FF00043DD
:10C9100023FA0CF34D692B434B61194BC3F80443C5
:10C920004023834040F2FF718A421AD013494FF0EE
:10C93000004222FA00F04A6902434A61104AC2F8F2
:10C94000043330BC70470D4D411C4FF0004323FAB7
:10C9500001F16B6923EA01036B61094BC3F80843DA
:10C96000DEE706494FF0004222FA00F04A6922EA67
:10C9700000024A61024AC2F80833E2E7982E00201A
:10C9800000700040144B1B7C1BBB10B5124B03EB1B
:10C9900040031B7F2BB1104A92F82D30013B82F8E7
:10C9A0002D3000F10C020C4B03EB420300241C71F0
:10C9B0005C71030103F1804303F5E043C3F81445C0
:10C9C000C3F8104540F2FF720449FFF78BFF204681
:10C9D00010BD1120704700BF982E002000F8FFFF07
:10C9E00038B5164B6FF00042C3F80823144A802173
:10C9F000C2F8801001229A6042F210730F49D1F8F8
:10CA000014210AB9013BFAD100240C4BC3F80045AC
:10CA10000C4B1C741D4602E00134082C08D005EBB9
:10CA200044031B7F002BF7D0E0B2FFF7ABFFF3E727
:10CA3000044B002283F82C2038BD00BF007000405A
:10CA400000E100E0982E00205AB32DE9F04782B0B3
:10CA500007468846164600F5A07500244FF4803935
:10CA6000A24603E001340435B44217D0A00000F51B
:10CA7000A07080B22B68002BF4D0D7F8043309FAE9
:10CA800004F11942EED0C5F800A02B680193019B78
:10CA9000D8F80030D8F804109847E3E702B0BDE8B2
:10CAA000F087704708B5042202490348FFF7CCFF1E
:10CAB00008BD00BFC82E00200080004008B5042239
:10CAC00002490348FFF7C0FF08BD00BFD42E002075
:10CAD00000900040032823D8012A06D001290BD05A
:10CAE00002290FD0A9B107207047012901D00022E7
:10CAF000F6E700F10E02D2B200EB4000094B1A54E7
:10CB00000020704700EB4000064B184442700020A4
:10CB1000704700EB4000034B1844827000207047C0
:10CB200007207047E02E002008B5012202210020D6
:10CB3000FFF7D0FF10B10346072813D107220221C7
:10CB40000120FFF7C7FF034608B107280AD10A22D0
:10CB500000210846FFF7BEFF034618B1072814BF9F
:10CB600003460023184608BD08B50388102B02D0E1
:10CB7000112B2BD008BD1D4B1B6823B11B4A13681A
:10CB800001331360F6E7012200210846FFF7A2FFF8
:10CB9000034608B1072812D1072202210120FFF71E
:10CBA00099FF034608B1072809D104220221002079
:10CBB000FFF790FF03460028E0D00728DED00C4A9C
:10CBC0001268002ADAD018469047D7E7074A136858
:10CBD000013B1360002BCDD1FFF7A6FF0028C9D081
:10CBE000034B1B68002BC5D09847C3E7F02E0020ED
:10CBF000EC2E00200369C26893429CBF80681B181A
:10CC0000013B981A70472DE9F84304460F46164633
:10CC1000C568D0F80890A9EB0508904507D9406889
:10CC200028440AF003FE3544E560BDE8F883406817
:10CC3000424628440AF0FAFD3544A5EB09052A4688
:10CC400007EB080160680AF0F1FDE560EDE72DE90A
:10CC5000F843064688461746C5684FF00009346910
:10CC6000A54224BFB268A418013C621BB3685C1BD8
:10CC7000BC4228BF3C46944228BF144670682246F6
:10CC8000414628440AF0D2FDA144A0442544B3689B
:10CC9000AB4208BF0025F5603F1BE0D14846BDE828
:10CCA000F883000010B5114C022323616361104921
:10CCB000A161104BE3614FF4007323620023A36270
:10CCC00063620122E262A1640B49E16410212165E3
:10CCD000A3656365E2650949E01D0AF003FE0849A2
:10CCE00020460AF0FFFD2023A37110BDF42E002082
:10CCF000209002007C2F00206C2F00202C9002003E
:10CD000030900200F8B50F461646184B451C05EB4F
:10CD1000450503EBC50500EB400003EBC000C46A0A
:10CD2000012C11D0022C1CD014B100242046F8BDD7
:10CD30002846FFF75FFF8642F8D832463946284634
:10CD4000FFF761FF3446F1E72846FFF753FF34460B
:10CD5000864228BF0446224639462846FFF753FF3D
:10CD6000E4E72846FFF773FF0446DFE7F42E0020D0
:10CD700008B5FFF797FF08BD6DDF704779DF704793
:10CD80007DDF704764DF70472DE9F04F87B0029177
:10CD90009A46109EBDF844B0338803930388002B55
:10CDA0004FD0054617464FF000094C46C8461BE0D9
:10CDB000013292B23280029B0AF80230338801338A
:10CDC0003380328852440DF1130105A8FFF7DAFFD2
:10CDD00028BB9DF813303288134433804FF001098B
:10CDE00001342B88A3421CDD6B6853F824000590A6
:10CDF00042460DF1130105A8FFF7C4FF0190E0B909
:10CE00009DF81330BB42EBD1B9F1000F1FD132882E
:10CE1000134402335B45CBDD0C2301930DE00190FD
:10CE20000BE0B9F1000F08D03388013B039A9B1A3D
:10CE30009BB2FF2B08D80AF80230019807B0BDE872
:10CE4000F08F00230193F8E70C230193F5E7328874
:10CE500013445B45B5DD0C230193EEE72DE9F0416A
:10CE600082B0044615461E46089FBDF82480CDF8C2
:10CE7000048000970222FFF787FF10B102B0BDE8DF
:10CE8000F081CDF8048000973346102229462046D1
:10CE9000FFF77AFFF2E72DE9F04784B005460E462A
:10CEA000144617880023138090F82D30002B40F093
:10CEB000B680AB78002B40F0DD80EB78002B40F0A3
:10CEC000FA806B68B3B12288D11CB94200F2C281EA
:10CED00093F900100223B354238801339BB22380BB
:10CEE0000A22F254238801339BB22380F154238811
:10CEF000013323802B89002B40F0F3802B8A002BF9
:10CF000040F0FC802B8B002B40F005812B6A002B1E
:10CF100041D021888A1DBA4200F2B0811A88052AC0
:10CF200040F2AE81A2F6814080B24FF27D3C604576
:10CF300040F2A8815888052840F2A681A0F6814CCD
:10CF40001FFA8CFC4FF27D3EF44540F29F814FF674
:10CF5000FF7C624502D0824200F29A81052272541F
:10CF60002288013292B222801221B15422880132E9
:10CF700092B222801988B018B154090A41702288EF
:10CF8000023292B222805B88B118B3541B0A4B70F4
:10CF9000238802332380D5F82480B8F1000F31D0E4
:10CFA000B8F80430023321888A1C1A44BA4200F2CD
:10CFB0005F81FE2B00F25E810133735423880133BD
:10CFC0009BB22380FF22F254238801339BB223803B
:10CFD000B8F80020F118F254120A4A702088023082
:10CFE00080B22080B8F8042062B1D8F80810002977
:10CFF00000F0428130440AF019FC2388B8F804207C
:10D000001344238095F82C30002B40F091802B782E
:10D01000002B40F0D380002004B0BDE8F087082F3B
:10D0200040F23A8102A8FFF7A7FE0028F4D1238836
:10D030000822F254238801339BB223801B22F2542E
:10D040002088013080B2208006220DF10901304491
:10D050000AF0ECFB238806339BB223809DF808205E
:10D0600012F0FE0F0CBF00220122F254238801337C
:10D0700023801EE723880433BB4200F20B8102A801
:10D08000FFF77CFE0028C7D123880322F2542388AF
:10D0900001339BB223801922F254238801339BB2BF
:10D0A0002380BDF80820F118F254120A4A70238830
:10D0B0000233238001E72288D11CB94200F2C880E4
:10D0C0000221B1542288013292B222800121B1544E
:10D0D00022880A4492B22280B35423880B442380CE
:10D0E000EFE60197009433460622022105F108007D
:10D0F000FFF7B4FE00283FF401AF8DE701970094DD
:10D1000033460722032105F11000FFF7A7FE002890
:10D110003FF4F8AE80E701970094334615221421BE
:10D1200005F11800FFF79AFE00283FF4EFAE73E711
:10D13000AB6A002B00F096804FF000084FF0160A03
:10D1400008E008F1010895F82C205FFA88F39A426C
:10D150007FF65DAF5FFA88F202EB4202A96A01EB4B
:10D160008209B9F804300233FE2B7DD820880133C0
:10D170003354238801339BB2238006F803A023880D
:10D1800001339BB2238031F82220F118F254120AA5
:10D190004A702088023080B22080B9F80420002A2A
:10D1A000CFD0D9F80810002960D030440AF03EFBF7
:10D1B0002388B9F8042013442380C2E72A88012A6F
:10D1C0003ED02288901CB8423CD8012B04D16B7809
:10D1D000023313449F4237D3023FBF1ABFB2ADF8A8
:10D1E000087002A93044FFF7CBFD00287FF414AF8C
:10D1F0002B78022B30D06A78BDF808108A4201D310
:10D200008F421BD2012B13D0ADF808700821BDF856
:10D210000830FE2B1AD822885D1CB55422880132B2
:10D2200092B22280B1542B46228813442380F3E625
:10D230009742E9D3ADF808200821E8E70921E6E79D
:10D240000720E9E60C20E7E60C20E5E60C20E3E603
:10D250000C20E1E60C20DFE6BDF80830BB42D3D855
:10D260000921D4E70720D7E60C20D5E60720D3E62E
:10D270000C20D1E60C20CFE60720CDE60C20CBE633
:10D280000720C9E60720C7E60720C5E60720C3E652
:10D290000720C1E60C20BFE60C20BDE608B330B580
:10D2A000864602B31488002007E0884217D21EF891
:10D2B00000C00CF1010C604480B28442F5D80546F0
:10D2C0000EEB000C9CF801C09C45EED188420CD2BC
:10D2D000023010801EF80500013880B200E0002006
:10D2E00030BD002070470020FAE70020F8E710B5B5
:10D2F00082B0044613460022ADF806200DF1060266
:10D30000FFF7CCFF20B1BDF80600204402B010BDED
:10D310000020FBE772DF704773DF704738B50446C3
:10D320000D460122B0F89810D0F89400FFF7DFFF07
:10D3300000B1057004F13C0204F1940104F15400C1
:10D34000FFF7E8FF38BD80F830107047002975D02E
:10D3500070B504460E46002873D091F87A301BB1A0
:10D3600091F89830002B6ED1D6F8A030042B6CD0F9
:10D37000D6F89C30042B6AD00025A57004F1040C6B
:10D3800006F1780EBEE80F00ACE80F00BEE80F0013
:10D39000ACE80F009EE807008CE8070084F83050E6
:10D3A000D6F8A4306363D6F8A830A3634FF6FF73B2
:10D3B000A4F8A83004F19403C4F8A4300722294645
:10D3C00004F1AA000AF05BFA237813B9FF2384F86A
:10D3D000543004F15501C4F8941022461F2322F85A
:10D3E000983F3046FFF757FD034628BB04F1740110
:10D3F000C4F89C1022461F2322F8A03F06F13C00EF
:10D40000FFF749FD0346B8B9012384F85130A269FA
:10D41000A4F8482084F83C300021216484F850109E
:10D420006369636404F13C0204F15400FFF772FF86
:10D43000034608B901222270184670BD0E23184613
:10D4400070470E23F8E70723F6E70723F4E70723DF
:10D45000F2E70000F8B50678002E00F0EB800446F5
:10D460000D46817000F1AA070722002138460AF014
:10D4700006FAE38813B1A378012B15D0E37913B131
:10D48000A378022B10D004F1AB0304F1B10113F81F
:10D49000012B12B98B42FAD100266B1E032B43D805
:10D4A000DFE803F00E151A1E636B2BB1012284F81E
:10D4B000B12008209847E6E7002384F8B130E2E77E
:10D4C000A37923B194F824300BB92EB10DE0E379A0
:10D4D00013B1002E40F0E580237A002B40F0C88085
:10D4E000637A002B40F0C6800025A570002384F8E5
:10D4F000B33004F13C051822002128460AF0BFF998
:10D50000012384F83C30E36A5A1E012A40F29680D7
:10D51000012384F8513094F82430002B00F09580DA
:10D52000012384F8523090E00023A370DEE7A36A61
:10D5300084F8523089E0012384F831300023C4F8A4
:10D54000A43027646364022384F83C308023A4F869
:10D5500048302A46D4F8A41004F15400FFF7DAFE4C
:10D56000002868D194F8301094F85400FFF7D4FEE6
:10D5700098B360E0022384F83130032384F83C3010
:10D580002369A4F848300023C4F8A4302764E36872
:10D590006364DEE763696364A369A4F84830637970
:10D5A0008BB194F8B23073B994F8B4305BB1022304
:10D5B00084F8503004212046FFF7B0FE50B905230F
:10D5C00084F8313002E0032384F8313004F194030D
:10D5D000C4F8A430A378002BBBD1636B63B394F879
:10D5E00031009847002026E0E3696364236AA4F8C9
:10D5F0004830637993B194F8B2307BB994F8B43081
:10D6000063B1022384F8503004212046FFF786FEE0
:10D610000028DFD1062384F8313002E0042384F8A7
:10D62000313004F19403C4F8A430D3E7002384F824
:10D630003130D2E70820F8BD0020FCE784F85130F3
:10D6400094F82430002B7FF472AF002384F850301C
:10D65000A378042BBED801A252F823F02DD60100E6
:10D6600037D5010075D5010095D50100E9D5010038
:10D67000032300E00423A370636B002B3FF436AF59
:10D680006279002A3FF432AF94F8B220002A7FF486
:10D690002DAF84F8B420012284F8B32007209847E6
:10D6A00027E7022521E700BF0388102B00D0704731
:10D6B000C37B012B04BF8388A1F8A830F7E770472C
:10D6C00075DF704776DF70477ADF70477BDF704722
:10D6D000034B1A8882420CBF18460020704700BFD7
:10D6E0009831002010B5B1F802C0B0F800E0E6456E
:10D6F00020D8B0F802E0E6451ED3B0F804C0B1F877
:10D7000004E0944594BFACEB0C04ACEB0204A645DA
:10D7100014D36244964513D8C288C8889A4294BFED
:10D72000911AD11A88420DD3134498428CBF00201D
:10D73000012000E0002010BD0020FCE70020FAE7F7
:10D740000020F8E70020F6E708B5024B9B6903B11B
:10D75000984708BD7C31002030B583B084B22046A4
:10D76000FFF7B6FFA0B10546027A174B1B7B9A4222
:10D7700010D300230372144B1B7CB3B9124B5B69AB
:10D7800033B100228DF80420ADF8064001A8984777
:10D7900003B030BD00F10A012046FFF791FF70B1E0
:10D7A0001128F5D0FFF7D0FFF2E73B212046FFF725
:10D7B00089FF30F00803E1D0FFF7C6FFDEE72B7AE0
:10D7C00001332B72E4E700BF7C31002000B583B049
:10D7D00002460B46497A69B9197A41B90D49496837
:10D7E0005868FCF7D9FE88B1FFF7AEFF0EE0094993
:10D7F0008968F5E700211972064B5B6933B1012195
:10D800008DF80410ADF8060001A8984703B05DF844
:10D8100004FB00BF7C31002070B504460388122B46
:10D8200064D011D8102B17D0112B14D18088FFF79A
:10D830004FFF044678B14068FCF7FCFE002836D163
:10D840004FF6FF73238006E0502B04D1C288324B81
:10D85000DB899A422ED070BDC37B012BFBD14FF6E2
:10D86000FF70FFF735FF0546E8B1A6880680002364
:10D8700003722A4B03CBC5F80A00C5F80E104FF609
:10D88000FF7340F2F31204F1100105F10A00FFF7F3
:10D8900029FF6872204BDB89002BDCD129463046FA
:10D8A000FFF794FFD7E70420FFF74EFFD3E7FFF71A
:10D8B0004BFFC5E7038A022BCDD185882846FFF7A9
:10D8C00007FF06460028C6D004F1120000F0EBF96D
:10D8D00020B131462846FFF779FFBCE77068FCF7B6
:10D8E000A9FE0028B7D0FFF72FFFB4E7868830469F
:10D8F000FFF7EEFE05460028ADD04FF6FF7340F26D
:10D90000F31204F108010A30FFF7ECFE68722946B1
:10D910003046FFF75BFF9EE77C310020AC310020F2
:10D9200068B338B50446174DAC468646BEE80F00CE
:10D93000ACE80F009EE807008CE80700124B2B6054
:10D940002068B0B1FFF7C0FE90B922680E4B106896
:10D95000516803C30D484FF6FF7303800C4B40F82A
:10D96000043F0C4A0021FCF701FE002818BF0320E9
:10D9700038BD0548FFF7AAFE0028EBD0F8E70E20D7
:10D98000704700BF7C310020AC310020983100206E
:10D99000B431002059D70100F0B583B00190A1B196
:10D9A00016460F46019D8DB10024254602E0013444
:10D9B000142C0BD0214601A8FCF771FF0028F6D0EB
:10D9C0003146A0B2B8470135F1E70025284603B03B
:10D9D000F0BD70B582B006460191019D85B100246D
:10D9E000254602E00134142C0AD0214601A8FCF798
:10D9F00056FF0028F6D006EB45039C800135F1E781
:10DA00003560304602B070BD2DE9F04F8FB083888D
:10DA100001930388112B48D080461A2B4AD0102B33
:10DA200002D00FB0BDE8F08F334A9368DB43029316
:10DA3000516802A8FCF792FF029903A8FFF7C9FFFB
:10DA4000DDF80CA0BAF1000F14D00DF10E0900277B
:10DA5000DFF8A4B00BF1780639F8025F0BF104048B
:10DA600029462046FCF70FFF0434A642F8D10137BF
:10DA70005745F1D1019D132D03D90420FCF79EFADF
:10DA8000CFE71D4C294604F10800FCF7E3FE2946C8
:10DA9000201DFCF7DFFE98F80F30012BC1D029467E
:10DAA00004F10C00FCF7D6FEBBE701991348FCF724
:10DAB000EAFEB6E7037A1C091F2B10D9019D2946FF
:10DAC0000F48FCF7C7FE022C04D929460D48FCF785
:10DAD000C1FEA6E701990B48FCF7D5FEA1E7064C6D
:10DAE000019D294604F11000FCF7CDFE294604F102
:10DAF0001400FCF7C8FE94E7D4310020DC3100208C
:10DB0000E4310020E8310020132801D900207047BB
:10DB100008B501460148FCF7C2FE08BDD831002017
:10DB200008B5FFF7F1FF08BD10B50446FFF7ECFF9D
:10DB300008B9002010BD21460348FCF7B0FE0028BC
:10DB400014BF02200120F5E7DC31002010B50446A7
:10DB5000FFF7DAFF00B910BD21460248FCF79FFE2F
:10DB6000F9E700BFE431002010B50446FFF7CCFF11
:10DB700000B910BD21460248FCF791FEF9E700BF4D
:10DB8000E831002010B50446FFF7BEFF002814BF9F
:10DB90002046142010BD000008B518210248FCF7EB
:10DBA00087FEC0B208BD00BFD431002038B504469E
:10DBB0000D460948FCF773FE00B938BD2046FFF753
:10DBC000A3FF0028F9D006352146034800EB850065
:10DBD000FCF765FEF1E700BFD431002070B50646C2
:10DBE0000C4615460D48FCF75AFE00B970BD30468C
:10DBF000FFF78AFF0028F9D03DB1063431460748C7
:10DC000000EB8400FCF726FEF0E7063431460348BB
:10DC100000EB8400FCF737FEE8E700BFD4310020BA
:10DC200070B504460E46154601460848FCF737FE17
:10DC300008B9002070BD0434044800EB8404A068D7
:10DC40002A463146FFF7A8FEF4E700BFD431002092
:10DC5000DAB138B50446154600231360B8B103683D
:10DC6000BBB1C38813F0030F15D10846FFF78AFF35
:10DC7000C0B2142811D02379834210D9E2882368D6
:10DC800000FB02302860002038BD0E2070470E20B7
:10DC9000FAE70E20F8E70720F6E70520F4E704206E
:10DCA000F2E7AADF7047007800F001007047F0B596
:10DCB00091B005460C4616468B78012B38BF0123E0
:10DCC0008DF80E300B88ADF80C300322002102A82D
:10DCD00009F0D5FD637C9DF8082002F0F0026FF397
:10DCE00007128DF80820013B042B0DD8DFE803F064
:10DCF000031D28333E009DF80830012262F3030320
:10DD000062F307138DF80830A37C9DF8092002F018
:10DD1000F0026FF307128DF80920013B042B38D86D
:10DD2000DFE803F02E929DA8B3009DF80830012291
:10DD300062F30303022262F307138DF80830E3E76E
:10DD40009DF80830012262F30303032262F30713F4
:10DD50008DF80830D8E79DF80830022262F30303FB
:10DD6000012262F307138DF80830CDE79DF80830E3
:10DD7000022262F3030362F307138DF80830C3E74E
:10DD80009DF80930012262F3030362F307138DF853
:10DD900009309DF80A10E37B63F3C301237C63F32E
:10DDA0000411237B63F30001237D002B14BF0223A6
:10DDB000012363F342018DF80A101C22002109A8F7
:10DDC00009F05DFD637B13F0300F68D1637B8DF844
:10DDD0002430A37B8DF825301422002104A809F0FB
:10DDE0004EFD03AB049302AB0593A388ADF81C3042
:10DDF000A3681BB1E288ADF818200893A369002B33
:10DE000000F00F8101AF03220021384609F037FDF1
:10DE1000A3691A88ADF82C205A88ADF82E205A68CC
:10DE20000A920D971A7B9DF8041001F0F0016FF330
:10DE300007118DF80410013A042A00F29580DFE8FA
:10DE400002F08AA4AFBAC5009DF80930012262F33E
:10DE50000303022262F307138DF8093099E79DF856
:10DE60000930012262F30303032262F307138DF8E2
:10DE700009308EE79DF80930022262F30303012284
:10DE800062F307138DF8093083E79DF80930022209
:10DE900062F3030362F307138DF8093079E7032275
:10DEA0000021684609F0EBFCE37C9DF8012002F0BC
:10DEB000F0026FF307128DF80120013B042B0DD8FF
:10DEC000DFE803F0031E29343F009DF801300122F2
:10DED00062F3030362F307138DF801309DF80030FD
:10DEE000012262F3030362F307138DF800309DF8FB
:10DEF000023062F342038DF80230CDF838D065E786
:10DF00009DF80130012262F30303022262F307133A
:10DF10008DF80130E2E79DF80130012262F303033E
:10DF2000032262F307138DF80130D7E79DF8013023
:10DF3000022262F30303012262F307138DF801301A
:10DF4000CCE79DF80130022262F3030362F307136A
:10DF50008DF80130C2E79DF80420012161F303022E
:10DF600061F307128DF804205A7B9DF8051001F02B
:10DF7000F0016FF307118DF80510013A042A38D823
:10DF8000DFE802F02E5A65707B009DF80420012125
:10DF900061F30302022161F307128DF80420E3E725
:10DFA0009DF80420012161F30302032161F30712AC
:10DFB0008DF80420D8E79DF80420022161F30302C4
:10DFC000012161F307128DF80420CDE79DF80420AC
:10DFD000022161F3030261F307128DF80420C3E705
:10DFE0009DF80520012161F3030261F307128DF80A
:10DFF00005209DF806109A7A62F3C3018DF8061089
:10E00000DA7A62F304118DF806101A7A62F30001CD
:10E010009B7B002B14BF0223012363F342018DF885
:10E020000610E36903B10C93334604AA09A92846F4
:10E03000FFF737FE11B0F0BD9DF80520012161F317
:10E040000302022161F307128DF80520D1E79DF844
:10E050000520012161F30302032161F307128DF80A
:10E060000520C6E79DF80520022161F30302012186
:10E0700061F307128DF80520BBE79DF8052002210A
:10E0800061F3030261F307128DF80520B1E7A5DF04
:10E090007047B5DF7047034660B1C160F722028068
:10E0A0004280FB210171C2801722028100209872F8
:10E0B000D87270470E20704738B1A1F117039BB298
:10E0C000E02B04D80180002070470E207047072005
:10E0D000704700008388002B40F0A48010B582B008
:10E0E0000C4603883A2B61D00CD8102B2DD0112B65
:10E0F00034D1F723CB8017230B8100238B72CB7293
:10E1000002B010BD552B29D1C388C988172B38BF41
:10E1100017238B4228BF0B4623810020A072FFF7F4
:10E12000B8FF00285FD1E37AC3B9E368B3B140F622
:10E130007722ADF800200022ADF802202289ADF848
:10E14000042069462046984708E0C37B012B04BFA2
:10E150000B88CB80C98823898B420DD3A37A002BEF
:10E16000CED0E1880020FFF792FF002849D100239C
:10E17000A3720123E372C3E70020FFF788FF10B901
:10E180000123E372EAE7112802D10123A372E8E731
:10E19000FCF7CEFF0246244B24495B1ADB081B0424
:10E1A000234943F00100FBF7BFFBD7E74389CA8847
:10E1B000934228BF1346172B38BF17230B81CA6819
:10E1C0006AB1C97A59B140F67721ADF80010002143
:10E1D000ADF80210ADF804306946204690470023A0
:10E1E000E372A3728CE7FCF7A3FF02460E4B0F49C4
:10E1F0005B1ADB081B040F4943F00100FBF794FB9B
:10E2000091E711283FF47CAFFCF792FF0246064BE2
:10E2100006495B1ADB081B04054943F00100FBF7C4
:10E2200083FB6DE7704700BF70880200188802000A
:10E23000389002006C900200B0DF704766DF7047D4
:10E24000037A03B9704710B5044600214088FFF7F0
:10E25000F5FF10B90023237210BD112802D06268A7
:10E260009047F9E701232372F6E760B169B10278BC
:10E27000DE2A0CD00A684260DE2202704FF6FF727E
:10E280004280002070470E2070470E207047082003
:10E29000704728B10278DE2A04D1418000207047FF
:10E2A0000E2070470820704700295ED030B585B039
:10E2B00004460D4658B10B78DE2B08D182884B8876
:10E2C0009A4206D00388012B0DD0512B18D005B0EF
:10E2D00030BD0846FFF7B4FF2388112B29D0512BFE
:10E2E0000ED0012BF3D1237A012BF0D1A2886B88B9
:10E2F0009A42ECD101232B722846FFF7A1FFE6E7F3
:10E30000A0886B888342E2D1A379022BDFD1A37B63
:10E3100003F0FD02042A14D0052BD8D1002300936A
:10E3200001930293039302228DF80020ADF804308C
:10E3300013E0A2886B889A42C9D14FF6FF736B80B5
:10E34000C5E70023009301930293039302238DF802
:10E3500000304FF4C073ADF804306946FFF76CFF2E
:10E360000028B4D06A689047B1E7704770B5054699
:10E37000064C04F1100603E028469847B44204D046
:10E3800054F8043B002BF7D1F8E770BD5832002059
:10E390004388033300EB8303994209D382884FF605
:10E3A000FF739A4206D00088B0FA80F040097047A7
:10E3B000022070470120704768B10168094A914204
:10E3C0000BD14068084B984209D00133984214BFE2
:10E3D000032001207047032070470320704700206E
:10E3E000704700BFDEC0ADDEFE011EF1033080B21B
:10E3F00040F2FD33984229D8164B1B7843B9154A91
:10E4000013895289134403449BB2B3F5806F10D330
:10E41000104B1B7DE3B90F4A938BD28B13440344FB
:10E420009BB2B3F5806F01D30720704701221346DA
:10E4300001E0002213460A80064A03EB830102EB47
:10E4400081014B891844488100207047092070479A
:10E45000072070478C32002008B5124B5B8803EB15
:10E460008301114A02EB8102D26872B90D4A04217C
:10E47000117003EB83030C4901EB8301002301229C
:10E4800049680A4801F0AEF808BD064B05221A702B
:10E49000074902238B80002301220968034801F009
:10E4A000A1F8F1E7703200208C3200200025002016
:10E4B0005433002000B583B0002300930823044A9E
:10E4C00004490968044800F0CBFF03B05DF804FB81
:10E4D000B8900200543300200025002000B583B01E
:10E4E0000146002300930823034A044800F0B8FFC4
:10E4F00003B05DF804FB00BFB090020000250020CF
:10E5000010B582B00C46002300930423084A01464C
:10E51000084800F0A5FF40B904EB8404064901EB6C
:10E5200084040123237402B010BD0E20FBE700BF5A
:10E53000AC900200002500208C32002000B583B092
:10E540000B4842680B4BB3F804C019685388033377
:10E550009BB24FF0030E80F800E0002000909B007B
:10E5600001EB8C01044800F07BFF03B05DF804FB75
:10E5700070320020543300200025002010B50146E1
:10E580000448FCF7E7F804461C22002109F077F95B
:10E59000204610BD403300202DE9F8430D461746B4
:10E5A00000F5805600F1080402230B804FF00109AA
:10E5B000DFF8548020E0A368D8F80020934212D9F5
:10E5C000C8F800300FE04FF480632B801AE031462A
:10E5D0002046FFF7DDFE03460028ECD00FB187F898
:10E5E0000090022BEFD02B880333628813442B80DA
:10E5F0006388033304EB8304B44203D22368B3F18A
:10E60000FF3FE4D1BDE8F8838432002070B50E46A8
:10E6100000EB8000164B03EB8000436803F5805548
:10E620000C6824B16388033304EB830418E003F11E
:10E63000080415E03460012005E06388033304EB2F
:10E6400083040DE0002070BD0020FCE72946204631
:10E65000FFF79EFE0128F0D00228F5D00028E9D06F
:10E66000AC42EFD22368B3F1FF3FEFD10020EAE7DD
:10E670008C32002070B582B005460C4643687BB1F1
:10E68000264AD26893420BD3244A1269934207D890
:10E6900013F0030104D10089214A1289904215D058
:10E6A000002323801E46019601A92088FFF7AEFFB4
:10E6B000014658B3019B2A6898689042F4D16B6078
:10E6C000174B1B892B81084602B070BD28689A68D9
:10E6D0009042E5D1134A5268934203D902F5805221
:10E6E00093420BD30F4A926993420AD902F58052A2
:10E6F000934238BF012302D30A2103E00023238081
:10E7000000E00A21B1FA81F14909DCE723880133ED
:10E710009BB22380012BC6D9D5E700BF002500207E
:10E72000703200208C3200202DE9F8431C46264B25
:10E730001B78002B40D005460F461646002A3DD0D8
:10E74000002C3DD0B4F804C0BCF1010F3AD8DFF87A
:10E750007C804FF000090CE0C4F80090B4F804C0CD
:10E760000CF1010C1FFA8CFCA4F804C0BCF1010FE1
:10E7700020D80CEB8C0C18F82C30002BEED1214655
:10E78000A088FFF743FF0028E6D023681DB19988D1
:10E790002A889142F3D11FB119883A889142EED16B
:10E7A0009B68336023687360094B1B8933810020A9
:10E7B000BDE8F8830A20FBE70220F9E70520F7E728
:10E7C0000520F5E70A20F3E7683200208C320020AC
:10E7D0007032002008B5064B191D5888FFF716FF48
:10E7E00010B1FFF7ABFE08BDFFF736FEFBE700BF39
:10E7F000703200202DE9F04389B00446A04DDFF8C7
:10E800008482A14F62E241463846FBF7E3FF28606D
:10E8100060E234B93379032B5BD8DFE803F00710EB
:10E820002F3A9A4B00225A600124B3E0012333713E
:10E83000FFF740FE00284CD109B0BDE8F083944BAF
:10E840001B78022B0DD0924B1B7D022B08BF01239E
:10E8500008D08E4B01221A7000225A6041F61D54D6
:10E8600098E000238A4A03EB8301002002F821008C
:10E8700002EB81035868FFF731FEDBE700233371B9
:10E88000844902228A8001220968834800F0AAFE96
:10E89000D0E7002434717F4E3068FFF71FFED6F8B2
:10E8A00000E07E4B5B887A4903EB830201EB820236
:10E8B000D2F804C0C6F800C0C2F804E0B6F804C03C
:10E8C000A2F808C00222B28003EB830301F82340C0
:10E8D000B0E76E4B00225A600E245BE0B6F814904D
:10E8E00094B909EB89036A4901EB83031C895B68CE
:10E8F00003EB8404B37D062B00F2A680DFE803F06F
:10E900002A8662761F98A600B37D022B09D909EBEF
:10E9100089025F4B03EB8202F388033311890B44B6
:10E9200013815B4A09EB890102EB8101F388C3F58E
:10E930007F43FD334A8913444B8101242AE0584820
:10E9400000234360B36903605649FFF793FE002834
:10E9500000F0FE810223B375002300930423F21814
:10E9600021464D4800F07CFD00283FF465AF0E24A1
:10E97000B37D022B6CD8464A09EB890102EB810179
:10E98000F388C3F57F43FD334A8913444B81002C40
:10E990003FF452AF0023039305930693079341F688
:10E9A0001D539C4208BF002404942A681378023B3C
:10E9B000042B00F27A81DFE813F06D01A101B401AC
:10E9C000C001C7013369002B14BF03230123B375B2
:10E9D00000230093042306F10C0204F108012E48E1
:10E9E00000F03EFD00283FF427AFC0E70123B375D8
:10E9F000F3883269002100919B0004F10C01264844
:10EA000000F02EFD00283FF417AFB0E7032A0CBF3B
:10EA100005230623B37500230093042306F108029F
:10EA2000E1181D4800F01CFD00283FF405AF9EE7EB
:10EA30000623B3751B4B1988194B5868FFF760FD07
:10EA40000446002894D1F7E60F2491E741F61D54BF
:10EA500009EB89020E4B03EB8202F3880333118921
:10EA60000B44138187E7002C40F074813379012B2C
:10EA700034D0022B00F00981B3B10F248AE700BF24
:10EA8000883200208032002040330020683200208D
:10EA90008C320020543300200025002070320020EA
:10EAA0004C32002060330020022333710023049392
:10EAB0000593F36803930DF10A0103A8FFF7DAFD4C
:10EAC00008B90A2463E704988388F38003883381B4
:10EAD000BDF80A10FFF714FD044658E7A34B03AA3C
